:400000000080002011000000C9420000C942000008B5044B1A6803F53F5302331A6004F073F900BFFA46004010B5054C237833B9044B13B10448AFF300800123237010BDF1
:40004000A089FF1F00000000D4D10000084B10B51BB108490848AFF300800848036803B910BD074B002BFBD0BDE81040184700BF00000000A489FF1FD4D10000C880FF1FF8
:400080000000000000B583B00023019305F0B0F810F0020F16D005F0B9F8114A13681B1A23F07F430093106004F0BCFF18B9009B43F000430093002301AA694608484068EB
:4000C00002F01CFD019B3BB14FF08052054B1A60BFF34F8FBFF36F8F03B05DF804FB00BFBC89FF1F04ED00E008B50A460146044B586802F06DFD003018BF012008BD00BFED
:40010000BC89FF1F00B583B0002101A8FFF7ECFF0028F9D103B05DF804FB00BF10B582B0FFF7F0FF0024C82101A8FFF7DDFF70B1019B002BF7DB23F000430193B3F5FA7FE8
:4001400007D91C4444F620639C42ECDD03E00024E9E70024E7E702B010BD00BF094B1B7A7BB910B5074C0123237200220421402002F00EFC6060044805F01EF805F08CF8B3
:4001800010BD7047BC89FF1F8500000008B504F087F908BD08B504F019F908BD38B504460D46002004F0AAFC002004F0B3FC204604F020F9204604F023F9284603F096F975
:4001C00038BD00BF38B504460D46012004F096FC012004F09FFC204604F00CF9204604F00FF9284603F082F938BD00BF00B583B003F050F8019004F091FF40B9012004F0D3
:4002000017FF012003F072F9002004F011FF192101A803F035F9EEE770B504F023FF044600F0080303F0FF050BB304F027FF064604F074FFA0B9134A13889B1B9BB252681C
:40024000012A09D10F4A9268012A05D80E4AA2FB03235B090B4AD36000220A4B5A6002E00122084B5A60074B1E8000229A6014F0010F03D0034A936801339360002DCCD1A8
:4002800070BD00BFC889FF1F09CB3D8D0B4B1B699BB900B583B00A4804F066FF04F030FF084B019303230093002364220649074802F06EFF03B05DF804FB7047C889FF1FEE
:4002C00019020000D889FF1FE0D10000ED010000014BD868704700BFC889FF1F08B5012002F000FC014B186008BD00BFDC89FF1FF8B50C46174600250FE023780A2B04D1A8
:400300004FF0FF310D2001F045F9661C4FF0FF31207801F03FF901353446BD42EDDB3846F8BD00BF70B582B00D4616463E4B1B68986805F0EFFF4FF0FF313C4B186802F07A
:40034000C3FC00286DD0002460E00A210DF1070001F010F9002835D04FF0FF319DF8070001F018F99DF807300D2B06D10A208DF807004FF0FF3101F00DF99DF807107F2946
:400380000BD12A4B5B68EBB1284A013B53609368013B03F07F03936014E0244A9368D0180173013303F07F0393605368013353600A2901D07F2B05D91C4AD2F88C300133EA
:4003C000C2F88C30194BD3F88C30FBB1174A5268C2B11648D0F890100844007B0A2804D1013B124EC6F88C3000262870013101F07F010E4BC3F89010013A5A600134013E3A
:40040000013503E00022094BC3F88C20002E9CDC00231A4619460548006802F0D3FA204600E0002002B070BD2885FF1FDC89FF1F10B582B004468DF804108DF8052004F0BF
:40044000E9FA0023022201A9204604F0F9F904F0C5FA10F0020FFAD0002002B010BD00BFF0B583B0054616461F4602AC04F8011D04F0D0FA002301222146284604F0E0F91E
:4004800004F0ACFA10F0020FFAD004F0C3FA00233A463146284604F039FA04F09FFA10F0010FFAD003B0F0BD00B583B001230DF10702FFF7D5FF9DF8070003B05DF804FB20
:4004C00008B504F041F8772220211D20FFF7B0FF832226211D20FFF7ABFF0F211D20FFF7E3FF492801D1012008BD002008BD00BF10B582B0044606236A46A8211D20FFF765
:40050000AFFF9DF801209DF8003043EA022323809DF803209DF8023043EA022363809DF805209DF8043043EA0223A38002B010BD10B5002201214FF4807002F029FA044CD1
:40054000C4F84004012002F0CDFAC4F8440410BD708AFF1F10B4154A82FB0032C317C3EB223242F2107303FB120205E0104880FB0340DB17C3EBA00392FBF3F00028F5D0A6
:400580000DE092FBF3F000F130040C7003FB1022074880FB0340DB17C3EBA0030131002BEFDC00230B7010BC704700BFAD8BDB686766666638B504460368984723686268CB
:4005C000934209D0054D2946204698476368236005F110012046984738BD00BFE8D1000038B504461F4D06E001354FF0FF3249B2206900F00BFE29780029F5D104F170059A
:4006000006E001354FF0FF3249B2206900F0FEFD29780029F5D1144D06E001354FF0FF3249B2206900F0F2FD29780029F5D104F1900506E001354FF0FF3249B2206900F0C5
:40064000E5FD29780029F5D1084D06E001354FF0FF3249B2206900F0D9FD29780029F5D138BD00BF08D200002CD2000018D2000038B504461F4D06E001354FF0FF3249B2AD
:40068000206900F0C3FD29780029F5D104F1B00506E001354FF0FF3249B2206900F0B6FD29780029F5D1144D06E001354FF0FF3249B2206900F0AAFD29780029F5D104F1F7
:4006C000BE0506E001354FF0FF3249B2206900F09DFD29780029F5D1084D06E001354FF0FF3249B2206900F091FD29780029F5D138BD00BF1CD2000030D2000028D30000FB
:4007000010B586B0C46802238DF80830002303930493059302F0BEFD0190642101A802F0AFFE00231A4602A9204602F04BF9F4E730B585B0C568046903238DF80030002069
:4007400001900290039004F0FBFF142002F0CEFE012004F0F5FF142002F0C8FE3221204600F070FD012806D100231A466946284602F028F9F2E7204600F072FD0028EDDD95
:4007800000231A466946284602F01CF9E6E700BF10B584B004464FF0FF31806802F094FA07492046FFF706FF4FF0FF326946E06802F00EFA69462046FFF7FCFEF4E700BF3B
:4007C000F8D1000010B50446CC22002106F07AFB014B2360636010BDF10D000070B582B006460D46224C2046FFF7ECFF00221021202002F0CDF8E060012002F073F9A06096
:400800004FF480714FF4E13000F0B6FC2061314604F1700006F0A0FC294604F1900006F09BFC002601960225009523464FF416721049114802F0ACFC01960095234664220A
:400840000E490F4802F0A4FC01960095234664220C490D4802F09CFC02E0322002F046FE034B1A68094B9A42F7D1002002B070BD542A002034D200009107000040D200006A
:400880003107000048D2000001070000290A000030B585B01546164C204606F05DFC04F10E012846FFF756FE04238DF8003000230193029303934FF0FF32694654F8A40C8A
:4008C00002F080F840F6B83154F8A80C02F0FCF9012808D1B03C00231A461946A06802F071F8002001E04FF0FF3005B030BD00BF042B002070B50D46164664210F4B986883
:4009000002F0E2F9012804D0002414E00134013500E00024B44207DA0A222946074B186900F066FC0028F1D100231A4619460348806802F047F8204670BD00BF542A0020AF
:40094000F8B50C46174664210F4B986802F0BCF9012817D10BE0661C4FF0FF3294F90010094B186900F052FC2B46344600E03B465D1E002BEFDC00231A4619460248806826
:4009800002F020F83846F8BD542A002010B584B005238DF80030002401940294039423464FF0FF3269460348C06802F00BF8204604B010BD542A002008B54FF0FF31FFF709
:4009C000E5FF08BD00238361C3614361704700BF38B504460B7813B1022B07D038BD0F4806F00AFB2046FFF7EDFF38BD4369013343610A2B0CD107E001354FF0FF3249B2E5
:400A0000206900F003FC00E0054D29780029F3D16369192B01D1034B636038BD58D2000054D20000F10D00000B7813B1042B09D0704710B50446054806F0DEFA2046FFF7BC
:400A4000C1FF10BD024B4360704700BF60D20000790C000010B504460B78012B10D013B1052B13D010BD0B4806F0C6FA2046FFF7A9FF00231A461946A06801F0A3FF10BD33
:400A80004FF0FF31806802F01FF910BD024B436010BD00BF68D200009D0A000038B504460B7813B1022B07D038BD0F4806F0A4FA2046FFF787FF38BD4369013343610A2BB9
:400AC0000CD107E001354FF0FF3249B2206900F09DFB00E0054D29780029F3D16369192B01D1034B636038BD74D2000054D20000210D000010B504460A2204F12001206964
:400B000000F076FB0028F7D110BD00BF38B504460D4602E0E3690133E361E3694E2B0ADCAB4208DA04F120010A221944206900F05FFB0028EED1E0698542CCBF00200120F9
:400B400038BD00BF2DE9F04180460F464FF0FF3515E0D8F81C300133C8F81C304344002483F8204005E0304606F060FD00B125460134002D03DA57F824100029F3D1002D6F
:400B80000DDAD8F81C104E2909DC08F120060A223144D8F8100000F02BFB0028D9D12846BDE8F08108B50249FFF7CCFF08BD00BFCC80FF1F38B505460B7813B1032B13D0A3
:400BC00038BD144806F018FA2846FFF7FBFE124C06E001344FF0FF3249B2286900F016FB21780029F5D138BDFFF7DCFF014678B905F120042246094806F0B6F908492046D4
:400C000006F014FD10B1074B6B6038BD064B6B6038BD00BF98D2000084D20000ACD20000B4D200002D0C0000350F000010B504460B78022B09D0032B14D0C3B90C4806F059
:400C4000DBF92046FFF7BEFE10BD436901334361012B01D1FFF7C4FC6369452B07DD0023636110BDFFF79EFF08B9024B636010BDC4D20000290A000010B504460B7813B15F
:400C8000032B0AD010BD0F4806F0B6F92046FFF799FE2046FFF7ECFC10BDFFF783FF40B9094904F1200006F0C1FC50B1074B636010BD012805D1064806F09EF92046FFF7BB
:400CC000D7FC10BDD0D20000E0D20000D50C0000ECD2000038B505460B7813B1032B13D038BD0C4806F088F92846FFF76BFE0A4C06E001344FF0FF3249B2286900F086FA67
:400D000021780029F5D138BDFFF74CFF08B9034B6B6038BD0CD30000FCD20000890F000038B505460B7813B1032B13D038BD174806F062F92846FFF745FE154C06E0013489
:400D40004FF0FF3249B2286900F060FA21780029F5D138BDFFF726FFB8B90E4905F1200006F064FC10B10C4B6B6038BD2846FFF729FE0A4C06E001344FF0FF3249B2286991
:400D800000F044FA21780029F5D138BD3CD300001CD3000048D30000290A00002CD300002DE9F04104460F46084606F033FA804613E0E5696319002283F8202004F120066B
:400DC0003946304606F032FC78B92A4604F12101304606F013F8013DE56141462046FFF795FE0028E5D1BDE8F0810120BDE8F08138B505460B78022B19D0032B37D0002B55
:400E00003BD11E4806F0F8F82846FFF773FE2846FFF7D8FD1A4C06E001344FF0FF3249B2286900F0F3F921780029F5D138BD436901334361092B20DD0023436183690133DA
:400E40008361042B08DD0CE001344FF0FF3249B2286900F0DBF900E0094C21780029F3D138BD084806F0C8F8074B6B6038BD0749FFF796FF08B1064B6B6038BD58D3000001
:400E800050D3000060D30000D109000080D30000950E000038B505460B78022B19D0032B35D0002B39D11D4806F0A6F82846FFF721FE2846FFF786FD194C06E001344FF0B1
:400EC000FF3249B2286900F0A1F921780029F5D138BD436901334361092B1EDD836901338361022B08DD0CE001344FF0FF3249B2286900F08BF900E0094C21780029F3D119
:400F000038BD084806F078F8074B6B6038BD0749FFF746FF08B1064B6B6038BD90D3000088D300009CD30000F10D000080D30000B50B000038B505460B7813B1032B13D0D1
:400F400038BD0D4806F058F82846FFF73BFD0B4C06E001344FF0FF3249B2286900F056F921780029F5D138BD0549FFF719FF08B1044B6B6038BD00BFD8D30000C4D30000F6
:400F800080D30000B50B000038B505460B7813B1032B13D038BD0D4806F02EF82846FFF711FD0B4C06E001344FF0FF3249B2286900F02CF921780029F5D138BD0549FFF772
:400FC000EFFE08B1044B6B6038BD00BFFCD30000ECD300000CD40000550A000008B502F0A5FE034806F008F8002002F003FB08BD18D4000008B5064B064ADA62064A9A6375
:40100000064ADA6303F046FD04F092FA08BD00BF0080FF1F613A0000C13A0000053B000000B583B0FFF7E6FF4FF4807000F076FAFFF754F9FFF77CFA00F02AF900240194A4
:401040000123009323464FF47A720849084802F09FF801940223009323464FF47A720549054802F095F802F0D5F8FEE734D40000DD0F00003CD40000B51200004FF0A003A7
:4010800083F31188BFF36F8FBFF34F8FFEE700BF4FF0A00383F31188BFF36F8FBFF34F8FFEE700BF10B582B0002301938DF803308DF8023004F050FA8DF803009DF80330BD
:4010C00013F0200F0FD004F041FA8DF802000C4C002301AA0DF10201206801F00FFD01A9606801F043FD019B3BB14FF08052054B1A60BFF34F8FBFF36F8F02B010BD00BFF9
:40110000B88EFF1F04ED00E000B583B0002301938DF803308DF8023004F02CFA8DF803009DF8033013F0020F15D001AA0DF102010F4B986801F05CFE012809D19DF802001E
:4011400004F01EFA04F016FA10F0040FEDD002E0002004F009FA019B3BB14FF08052054B1A60BFF34F8FBFF36F8F03B05DF804FBB88EFF1F04ED00E038B50D460322002131
:40118000012001F005FC174B586001E004F0DEF904F0E2F910F0200FF8D100220121284601F0F6FB0F4C206004F04CFA0E4804F03BFA00220121284601F0EAFBA06004F0EB
:4011C00013FA0A4804F002FA002004F0CDF9A3681BB123681BB9002038BD002038BD012038BD00BFB88EFF1FA51000000911000008B5054B186801F0EBFC012801D00020DF
:4012000008BD012008BD00BFB88EFF1F10B582B002A800F8011D002301460948806801F0D1FB012801D1012400E0002402F02AFC032004F099F902F035FC204602B010BDDC
:40124000B88EFF1F08B5054B586801F03DFD012801D0002008BD012008BD00BFB88EFF1F08B5024B186801F0FDFD08BDB88EFF1F00B583B002A941F8040D00231A460348E1
:40128000006801F09FFB03B05DF804FBC48EFF1F10B500220C21202001F07AFB044C606000220421202001F073FB206010BD00BFC48EFF1F10B5ADF5067D58223A490CA8FD
:4012C00005F026FD00240EE0384800F1080104EB840213010B44089300231A4608A9006801F070FB01341F2CEEDD314A314962A800F0DCFE8023029322AA0192009342ABB4
:4013000047F2305262A968A800F0B2FB40F25B72294962A800F0E2FE014610B1274805F023FE68A800F014FD0146012802D0244805F01AFE03238DF83830224B0F930CA9BF
:4013400068A800F083FD014618B11F4805F00CFE02E01E4805F050FE4FF0FF3205A9134B586801F035FC20B94FF47A7002F0BEF8F2E700238DF820308DF8213006980A9001
:4013800005F048FF0B9008AA059968A800F066FD014610B10E4805F0E7FD079B002BDBD006989847D8E700BF48D40000C48EFF1FA0D40000ACD40000BCD40000CCD4000049
:4013C000F4D4000018D5000020D5000048D5000058D5000010B584B00C460190642202A90D4B186801F0F4FBA0B14F222146029805F08CFF0023029A82F84F30074A039253
:40140000642201A90448406801F0DCFA10B90298FFF72EFF04B010BDC48EFF1F711200000EB430B596B0054619AB53F8042B1593502101A809F0EAF9044601A92846FFF75B
:40144000C9FF204616B0BDE8304003B0704700BF00B583B0002301938DF803308DF8023003F02CFB8DF803009DF8033013F0200F0BD003F01DFB8DF80200002301AA0DF157
:4014800002010848006801F039FB019B3BB14FF08052054B1A60BFF34F8FBFF36F8F03B05DF804FBCC98FF1F04ED00E000B583B0002301938DF803308DF8023003F00CFB47
:4014C0008DF803009DF8033013F0020F15D001AA0DF102010F4B586801F08AFC012809D19DF8020003F0FEFA03F0F6FA10F0040FEDD002E0002003F0E9FA019B3BB14FF08F
:401500008052054B1A60BFF34F8FBFF36F8F03B05DF804FBCC98FF1F04ED00E038B5054601E003F0C5FA03F0C9FA10F0200FF8D100220121284601F02BFA0B4C206004F069
:4015400061F90A4804F050F900220121284601F01FFA606004F028F9054804F017F9002003F0B4FA38BD00BFCC98FF1F51140000AD14000008B50A460146054B186801F06E
:4015800027FB012801D0002008BD012008BD00BFCC98FF1F10B582B002AC04F8010D00230A4621460948406801F00CFA012801D1012400E0002402F065FA032003F086FA7F
:4015C00002F070FA204602B010BD00BFCC98FF1F2DE9F04383B001F05DFE019003F0ECFB044603F07DFE804603F056FB064603F0CFFA054603F0DCFE074603F091FC8146C0
:4016000014F0400F09D003F0DDFB044603F0E6FB201A80B25E4BD88008E003F0D3FB044603F02AFC201A80B2594BD88019F0400F09D003F07BFC044603F084FC201A80B2F0
:40164000534B988008E003F071FC044603F0C8FC201A80B24E4B988018F0020F09D003F045FE044603F04EFE201A80B2484B188108E003F03BFE044603F050FE201A80B2FA
:40168000434B188117F0020F09D003F097FE044603F0A0FE201A80B23D4B588008E003F08DFE044603F0A2FE201A80B2384B588016F0400F09D003F0F5FA044603F0FEFA94
:4016C000201A80B2324B588108E003F0EBFA044603F042FB201A80B22D4B588115F0400F09D003F05BFA044603F064FA201A80B2274B188008E003F051FA044603F0A8FAA6
:40170000201A80B2224B1880012003F0DBFE0C2003F0C8FB012003F0B9FB0C2003F0C6FE012003F0B7FE0C2003F0D4FB012003F0C5FB0C2003F006FA012003F0F7F90C20E4
:4017400003F09CFE012003F08DFE0C2003F05EFC012003F04FFC002003F0B4FE0A2004F075F8022003F09EFB022003F09FFE022003F0B0FB022003F0E5F9022003F07EFE71
:40178000022003F043FC012101A801F079FE25E7D498FF1F104BDB68EBB900B583B0012003F0E4FA03F05AFB03F0E6FD03F0C6FA03F040FA03F048FE03F004FC074B0193E0
:4017C00003230093002364220549064801F0E0FC03B05DF804FB7047D498FF1FE098FF1F80D50000D1150000244B1B889BB2244A1288934202D20023038001E001230380C7
:401800001E4B5B889BB21E4A5288934202D20023438001E001234380184B9B889BB2184A9288934202D20023838001E001238380124BDB889BB2124AD288934202D20023C1
:40184000C38001E00123C3800C4B1B899BB20C4A1289934202D20023038101E001230381064B5B899BB2064A5289934202D200234381704701234381704700BFD498FF1FEF
:40188000D880FF1F10B4064C20806180A280BDF808206281BDF804202281E38010BC7047D880FF1F41600260704700BF03684FF6FF72934201D0013300E001230360184628
:4018C000704700BF2DE9F04383B080460E46914600240C6001250134042C16DCD8F85400C7684B4601220DF10701B84701280CD19DF8073003F07F03326803FB0523336052
:40190000ED019DF90730002BE5DB204603B0BDE8F08300BF10B48B68496819441BE01C782F2C01D12F2A1AD12B2A03D0232A01D0A24214D12B2A09D15A1C01E001335A1C0D
:401940008A4206D212782F2AF8D102E0232A00D14B1E0130013302780AB18B42DFD38B4202D11AB1002002E0002000E0012010BC704700BF2DE9F04780460F469146002462
:4019800011E0D8F85460D6F810A0D8F810502544484600F071FB03463A4629463046D047002807DB0444BC4204DA484600F06CFB0028E6D0BC4208D1D8F8181008F15800DB
:4019C00000F052FB0020BDE8F0874FF0FF30BDE8F08700BF2DE9F04383B004460E4600230193456DEF68D0F81480084600F044FB0346012241462846B8470546012833D19A
:401A0000304600F039FB024601A92046FFF75AFF60690199013000F0F3FC0130E3681B1A019FBB421CD3002F10DDD4F85480D8F80C9065690544304600F01EFB03463A462E
:401A400029464046C847019B98420CD163691D782D09A16941B104F1640000F005FB03E06FF0010500E00025284603B0BDE8F08338B504464165002104E0481D002544F805
:401A8000305001310429F8DD62602361049BA360059B6361069BE360002323626362237723652046012340F8583B00F0F7FA04F1640000F0F3FA04F1700000F0B7FA38BD4C
:401AC0002DE9F04182B005460E4690464FF0FF37002420E0631D55F83310D9B1304600F07FFD30B9631D314655F83300FFF712FF80B1631D05EBC3035B685BB14246314647
:401B00006846FFF7CFFE631D05EBC3035B686846984700270134042CDCDD57B12B6D43B1424631466846FFF7BDFE2B6D684698470027384602B0BDE8F08100BF836933B354
:401B400010B584B00446583000F09EFA20B904F1640000F099FAE8B1237FEBB901A800F09DFA4FF47A7101A800F078FAA168206900F0C6FB011E08DD01AA2046FFF7FAFECF
:401B8000034658B90122227708E0002306E0002318467047002301E04FF0FF33184604B010BD00BF002304E05A1D002140F832100133042BF8DD704708B50023037703620C
:401BC000436A0BB1FFF7EEFF08BD00BF70B58EB005460C46FFF7FEFE06460D2800F28D80DFE800F0858B8507855656858B858B858B8200230D93EB6804936B6903930DAB9E
:401C000002930CAB019307AB00930BAB0DF1290206A90DF12A0000F079FB012834D19DF818300EAA02F8103D07A92846FFF748FF9DF8283053B3012B0AD1BDF82C30009362
:401C400000230422A968286900F03EFD01460DE0022B0AD1BDF82C30009300230522A968286900F031FD014600E00021002905DD22462846FFF77EFE044601E04FF0FF342C
:401C8000B4F1FF3F34D13CE000243AE000242FE0EB6800936B690AAA06A907A800F07AFB012815D12869A968052E01D1062200E00722BDF828300093002300F005FD011EC3
:401CC00009DD22462846FFF755FE044630B907E04FF0FF3404E04FF0FF3401E04FF0FF34B4F1FF3F04D10CE000242C7700E000242846FFF723FF10B903E0044601E04FF09F
:401D0000FF342CB12B6A23B12846FFF755FF00E0344620460EB070BD30B585B0054601A800F0BCF905F17004204600F087F94FF4FA7101A800F092F901A92846FFF746FFAF
:401D4000204600F083F90A2001F0D0FBEAE700BF08B502460249743000F052F908BD00BF191D0000F8B507460E4615464FF0FF34284600F089F940B929463846FFF726FF36
:401D80000446B04201D00028F2DA2046F8BD00BFF0B59BB004460D46174658222A4901A804F0B6FF04F17006304600F047F9236A002B32D117A800F071F9616817A800F0C2
:401DC0004DF905B901AD298BA161AB7E636204F1640000F049F92A46A168206900F0C4F9011E1DDD17AA2046FFF7C4FD0546F8B917AA02212046FFF7B5FF022813D100233B
:401E00003B70384600F8013FE3686269394600F037FA01280AD13D780AE04FF0FF3507E04FF0FF3504E04FF0FF3501E04FF0FF351DB90123236200232377304600F006F9CF
:401E400028461BB0F0BD00BF8CD5000000B583B001AAFFF79DFF03B05DF804FBF0B591B00446154600230B930C930A9100F17007384600F0E3F8236A002B60D00DA800F06C
:401E80000DF961680DA800F0E9F82B78013BDBB2012B03D82046FFF709FDA8802B7895F801E0B5F804C0AA68E9680691059202AE0AAA07CA86E80700CDF804C0CDF800E0E5
:401EC0000022A168206900F0B9FB011E3ADD0DAA2046FFF74FFD064600283BD12B78012B15D10DAA04212046FFF73CFF04282CD1E368009363690DF1260209A90DF125007F
:401F000000F048FA012825D04FF0FF3622E0022B20D10DAA07212046FFF724FF072817D1E368009363690DF1260209A90DF1250000F030FA01280DD04FF0FF360AE04FF0E6
:401F4000FF3607E04FF0FF3604E04FF0FF3601E04FF0FF36B6F1FF3F02D12046FFF72CFE384600F073F8304611B0F0BDF0B585B007460E461546039301A801F0E5FB00241F
:401F80002A1B31193868FEF7B5FC002801DD044401E0002808DBAC4207DA03A901A801F0EDFB0028ECD000E00446204605B0F0BDF0B585B007460E461546039301A801F039
:401FC000C3FB00242A1B31193868FEF7B9FC002801DD044401E0002808DBAC4207DA03A901A801F0CBFB0028ECD000E00446204605B0F0BD08B50068FEF7DEFC08BD00BFC3
:4020000070B582B006460C461546002001F0F2F8019600902B464FF47A720349204601F0B7F802B070BD00BFE4D5000010B50446012000F057FD206010BD00BF08B54FF069
:40204000FF31006800F040FE08BD00BF08B500231A461946006800F0B5FC08BD08B540F8041B01F071FB08BD08B54FF47A7303FB01F1FFF7F3FF08BD10B50446014604305F
:4020800001F07CFB206810BD08B50146043001F075FB012814BF0020012008BD0022034643F8042B42605A60704700BF10B5044608466160A26000232360054BE360054B78
:4020C0002361054B63611146FEF788FB206010BD6D1F0000B11F0000F51F000008B50068FEF7D6FB08BD00BF70B50446037A032B03D0042B03D0002502E00C2500E00A2517
:4021000004F10C0393E8070000F05CFA02300544E37E7BB104F1240393E8070000F052FA861C04F1300393E8070000F04BFA304402300544236C0BB9A36C3BB104F14003FB
:4021400093E8070000F03EFA02300544E36C0BB9636D33B14C3494E8070000F033FA02300544284670BD00BFF0B583B006460C46154601901046FFF7B7FF074600F080F964
:40218000A04274DC102101A800F0A8F93946019800F036F9019B184401902B7A042B09D1354901A800F0BCF904210DEB010000F095F907E0314901A800F0B2F9032101A83A
:4021C00000F08CF900246FF30704AB7E63F34104EB7E003318BF012363F3820414F0040F07D095F83D3063F3C40495F83C3063F345142B6C0BB9AB6C0BB144F08004EB6CB7
:402200000BB96B6D0BB144F04004E1B201A800F065F9298B01A800F067F905F10C030ECB01A800F091F9EB7E5BB105F124030ECB01A800F089F905F130030ECB01A800F075
:4022400083F9E4B214F0800F05D005F140030ECB01A800F079F914F0400F05D04C3595E80E0001A800F070F90198801B01E06FF0010003B0F0BD00BFB4D40000F0D50000B0
:4022800030B583B005460C4602A840F8042D00F01FF900F0F000202815D16946019800F003F9019B03440193009B012B0CDD01A800F00EF900F00100287001A800F008F922
:4022C0002070012000E0002003B030BD10B582B0019001290FDD0023044662F30713194601A800F0FBF80021019800F089F8019B1844001B01E06FF0010002B010BD00BF6B
:4023000008B50C22FFF7E2FF08BD00BFF0B583B007460D4614461E460B9B01930023009301A800F0D5F8002360F3070303F0F002302A2BD1C3F3C0023A70C3F341022A606B
:40234000C3F3000323706946019800F0ADF80446019F07440197009B1F443A4601A9089800F014F998B1019BFB1A002B0FDB2B68002B03DD01A800F0A3F83080019BFF1A5C
:402380000A9A1760099A1360012400E00024204603B0F0BD70B582B005460E46144602A840F8043D00F094F8002360F30703C3F3C0023270C3F303132B706946019800F0D5
:4023C00073F8019B03440193009B012B04DD01A800F076F82080012002B070BD30B4002306E0064C2268551C25601278027001338B42F6DB084630BC704700BFF098FF1FC9
:4024000030B40546002200E002460C4B0B40002B03DA013B63F07F030133DBB20C46002901DA01F17F04E111002901DD43F08003501CAB540029E7DC30BC70477F00008034
:40244000F0B583B007460E4600240C6001250134042C12DC01210DF10700B84701280CD19DF8073003F07F03326803FB05233360ED019DF90730002BE9DB204603B0F0BDAA
:40248000431C7F2B01DC02307047B3F5804F01DA03307047034A934201DC043070470530704700BFFEFF1F0008B5034B18600348FFF7C6FF08BD00BFF098FF1FDD230000AD
:4024C000036819785A780233036002EB012070470246036813F8010B1360704703681970036801330360704702680B46002901DA01F1FF03C3F3072313700268531C0360BE
:40250000064B0B40002B03DA013B63F0FF0301335370036801330360704700BFFF00008070B505460E46084604F074FE044601462846FFF7D9FF22463146286804F0E8FBED
:402540002B681C442C6070BD30B585B0054604A800E90E00029C002C0CDD21462846FFF7C3FF22460399286804F0D2FB2B681C442C6009E0019919B12846FFF7D1FF03E02F
:4025800000212846FFF7B0FF05B030BD70B505460B68D31A012B0FDD0C4616460846FFF78FFF686023681A18964207D3AB60236818442060012002E0002000E000200023EE
:4025C0002B6070BD00B585B004AB03E90700019810B104F01FFE00E0029805B05DF804FB70B50D46046824B1204604F013FE064601E084684668284604F00CFE864207D1B2
:4026000032462946204604F033FE18B1002070BD002070BD012070BD10B584B0044601A880E80E0007C8FFF7CDFF0230069B1844002C00DD023004B010BD00BF2DE9F0478D
:4026400084B00746884692461E46129C039000940EAB0ECB3046FFF7DFFF8146FFF710FF40452BDC0025032363F307156AF3C30566F342059DF8303063F30005E9B203A8AE
:40268000FFF72CFF49460398FFF7BAFE039B184403900EAB0ECB03A8FFF756FF002E04DDBDF8341003A8FFF71FFF22461199039804F02EFB03982044C01B01E06FF0010060
:4026C00004B0BDE8F08700BF30B583B0019003291EDD0025044662F3071563F3C305062A14BF0022012262F34205E9B201A8FFF7F5FE02210198FFF783FE019B18440190B0
:40270000BDF8181001A8FFF7EFFE0198001B01E06FF0010003B030BD00F1080343604FF0FF328260C360036100230360704700BF00230361704700BF43684B609A688A60E8
:402740009A68516099600861036801330360704730B40D68B5F1FF3F01D1026907E000F1080200E01A4653681C68A542FAD253684B6099608A605160086103680133036098
:4027800030BC704703694268816891608268416851605A68904201D182685A60002202611A68013A1A601868704700BF436A23B1036B1868C0F1050070470020704700BF14
:4027C00010B5044601F05EF9A26BE36B9A4201D1012400E0002401F065F9204610BD00BF10B5044601F04EF9A36B0BB9012400E0002401F057F9204610BD00BF70B504462B
:402800001646856B026C3AB9036843BB406801F051F80023636029E06EB9806804F078FAA268236C1344A3606268934219D32368A36000201AE0C06804F06AFA236C5B426A
:40284000E2681A44E26021688A4202D262681344E360022E07D145B1013D002006E0002004E0002002E0002000E000200135A56370BD00BF026C72B110B5C3681344C36054
:402880004468A34201D30368C3600C46C168204604F03EFA10BD704738B5054601F0F2F895F8454064B20AE06B6A53B105F1240000F010FF08B100F08DFF013C64B2002CC9
:4028C000F2DCFF2385F8453001F0ECF801F0DAF895F8444064B20AE02B6953B105F1100000F0F8FE08B100F075FF013C64B2002CF2DCFF2385F8443001F0D4F838BD00BFDB
:4029000038B504460D4601F0BDF82168E26B236C03FB021060600020A063A160013A02FB0313E360FF2384F8443084F845307DB92369ABB104F1100000F0CCFE80B14FF02D
:402940008052094B1A60BFF34F8FBFF36F8F07E004F11000FFF7E0FE04F12400FFF7DCFE01F0A0F8012038BD04ED00E038B51D46049C0B4609B9246000E02260E0632364AB
:4029800001212046FFF7BCFF84F84C5038BD00BFF0B583B0054617460E4611B100FB01F000E00020503001F009F9044638B100903B4600F1500231462846FFF7D7FF20467F
:4029C00003B0F0BDF0B585B004460F4601921E46002501F057F8A26BE36B9A4201D3022E21D1324639462046FFF708FF636A6BB104F1240000F06EFE88B14FF08052324BF6
:402A00001A60BFF34F8FBFF36F8F08E038B14FF080522D4B1A60BFF34F8FBFF36F8F01F041F801204EE0019B1BB901F03BF8002048E01DB902A800F097FE012501F032F82D
:402A400000F01EFC01F01EF894F844305BB2B3F1FF3F02D1002384F8443094F845305BB2B3F1FF3F02D1002384F8453001F01AF801A902A800F082FEF0B92046FFF7A0FE2F
:402A8000A0B1019904F1100000F014FE2046FFF703FF00F089FC00289BD14FF080520A4B1A60BFF34F8FBFF36F8F92E72046FFF7F3FE00F079FC8CE72046FFF7EDFE00F0C8
:402AC00073FC002005B0F0BD04ED00E048B108B5002141600160C1600B460A46FFF772FF08BD704710B5024600210120FFF750FF0446FFF7EBFF204610BD00BFF8B5EFF357
:402B000011864FF0A00484F31188BFF36F8FBFF34F8F856BC46BA54201D3022B1BD11746054690F8454064B21A46FFF767FEB4F1FF3F0AD16B6A83B105F1240000F0CAFDBA
:402B400068B177B1012038600CE0013464B285F84540012006E0002004E0012002E0012000E0012086F31188F8BD00BF38B5EFF311844FF0A00383F31188BFF36F8FBFF3B5
:402B80004F8F826BC36B9A4218D290F845305BB201328263B3F1FF3F0AD1436A83B10D46243000F097FD68B175B1012028600CE001335BB280F84530012006E0002004E05E
:402BC000012002E0012000E0012084F3118838BDF0B585B004460F460192002600F052FFA56BC5B139462046FFF744FE013DA563236963B104F1100000F06CFD38B14FF029
:402C00008052304B1A60BFF34F8FBFF36F8F00F049FF012053E0019B1BB900F043FF00204DE01EB902A800F09FFD012600F03AFF00F026FB00F026FF94F844305BB2B3F1DE
:402C4000FF3F02D1002384F8443094F845305BB2B3F1FF3F02D1002384F8453000F022FF01A902A800F08AFDF0B92046FFF7B8FDA0B1019904F1240000F01CFD2046FFF75A
:402C80000BFE00F091FB0028A8D14FF080520D4B1A60BFF34F8FBFF36F8F9FE72046FFF7FBFD00F081FB99E72046FFF7F5FD00F07BFB2046FFF794FD00288FD0002005B008
:402CC000F0BD00BF04ED00E070B584B0044601910026354600F0D6FEA36BCBB1013BA363236813B900F07AFE6060236963B104F1100000F0EFFC38B14FF080523B4B1A6038
:402D0000BFF34F8FBFF36F8F00F0CCFE01206BE0019B1BB900F0C6FE002065E01DB902A800F022FD012500F0BDFE00F0A9FA00F0A9FE94F844305BB2B3F1FF3F02D1002335
:402D400084F8443094F845305BB2B3F1FF3F02D1002384F8453000F0A5FE01A902A800F00DFD40BB2046FFF73BFDF0B123683BB900F088FE606800F035FD064600F092FED0
:402D8000019904F1240000F095FC2046FFF784FD00F00AFB00289DD14FF08052134B1A60BFF34F8FBFF36F8F94E72046FFF774FD00F0FAFA8EE72046FFF76EFD00F0F4FA08
:402DC0002046FFF70DFD002884D066B100F05AFE2046FFF7EBFC0146606800F0AFFD00F061FE002000E0002004B070BD04ED00E02DE9F041EFF311864FF0A00383F31188D2
:402E0000BFF36F8FBFF34F8F846BFCB19046074690F844506DB2FFF72DFD013CBC63B5F1FF3F0DD13B699BB107F1100000F052FC80B1B8F1000F0FD00120C8F800000CE04F
:402E400001356DB287F84450012006E0002004E0012002E0012000E0012086F31188BDE8F08100BF10B5044600F00CFEA46B00F019FE204610BD00BF094B9B6A1B680BB922
:402E8000012300E0002323B14FF0FF32044BDA627047034B9A6AD268D2685268DA627047F498FF1F2DE9F04781460D4617469A46089EDDF824800A9C9200A521206B04F008
:402EC00001F8236B07F18042013A03EB820727F00707002306E0E95CE21882F83410EA5C12B101330B2BF6D9002384F83F30042E00D90426E662A6640025E564201DFFF73C
:402F000017FC04F11800FFF713FC2461C6F10506A66164622565C4F8805484F884544FF48562294604F1580003F0CCFF04F55173E36504F56B73236604F214436366184B68
:402F4000C4F88C3004F5807301200021C3E9000143F20E33A4F808314AF6CD33A4F80A3141F23423A4F80C314EF26D63A4F80E314DF6EC63A4F810310523A4F812310B23AA
:402F8000A4F8143152464946384600F057FD2060B8F1000F01D0C8F80040BDE8F08700BFF8D5000070B5002407E004EB8402930010481844FFF7B0FB0134042CF5D90E4C7C
:402FC00004F194063046FFF7A7FB04F1A8052846FFF7A2FB04F11400FFF79EFB04F1BC00FFF79AFB2046FFF797FBA662C4F8D05070BD00BF2499FF1FF498FF1F38B5054642
:4030000000F040FD264BD3F8D4200132C3F8D420D3F8D8304BB9224BC3F8D850D3F8D430012B10D1FFF7BEFF0DE01D4BD3F8DC304BB91B4BD3F8D830DA6AEB6A9A4202D8E3
:40304000174BC3F8D850164CD4F8E0300133C4F8E0302B64EB6A012202FA03F1D4F8E4200A43C4F8E42004F1300003EB83039A00291D1044FFF760FB00F014FDD4F8DC3002
:403080006BB1D4F8D830DA6AEB6A9A4207D24FF08052044B1A60BFF34F8FBFF36F8F38BDF498FF1F04ED00E010B50446583003F0B9FF206B00F0DCFD204600F0D9FD10BDB9
:4030C00038B517E000F0DEFC0D4CD4F8C830DD68281DFFF757FBD4F8D430013BC4F8D430D4F8E830013BC4F8E83000F0DBFC2846FFF7DAFF024BD3F8E830002BE2D138BD6C
:40310000F498FF1F08B5FFF7DBFFFCE770B504460E461E4BD3F8EC50D3F8D8000430FFF731FB60B9194BD3F8D820D16A012202FA01F1D3F8E42022EA0102C3F8E420B4F17B
:40314000FF3F07D136B11148D0F8D8100431FFF7F3FA70BD2C440D4BD3F8D8305C60A54208D90A4BD3F8D000D3F8D8100431FFF7EFFA70BD054DA86AD5F8D8100431FFF7BD
:40318000E7FAEB6A9C4200D2EC6270BDF498FF1F2DE9F04385B006460F4615469846900000F00CFD68B181464FF4916000F006FD044610B1C0F8309004E0484600F058FDE2
:4031C00000E000248CB10023039302940D9B01930C9B009343462A4639463046FFF762FE2046FFF70BFF012001E04FF0FF3005B0BDE8F08310B5044600F044FC14B9044B87
:40320000D3F8D840E46A00F04DFC204610BD00BFF498FF1F00B583B0144B019300230093642213491348FFF7B3FF01281AD14FF0A00383F31188BFF36F8FBFF34F8F0E4B74
:40324000D3F8D82058320D490A604FF0FF32DA620122C3F8DC200022C3F8EC2002F062FA00F078FC03B05DF804FB00BFE899FF1FFCD5000005310000F498FF1F2885FF1F3F
:40328000034AD2F8F0300133C2F8F030704700BFF498FF1F014BD3F8EC007047F498FF1F2DE9F0413F4BD3F8F030002B66D13D4BD3F8EC700137C3F8EC7067B99A6AD3F83A
:4032C000D0109962C3F8D020D3F8F8200132C3F8F820FFF7D1FD334BDB6A9F4205D24FF000083FE04FF0010801E04FF000082D4B9B6A1B680BB9012300E0002323B14FF04C
:40330000FF32284BDA622DE0264B9B6ADB68DC6863689F4202D2234AD36223E0261D3046FFF730FAA36A1BB104F11800FFF72AFAE36A012202FA03F11A4DD5F8E4200A43C0
:40334000C5F8E42005F1300003EB83039A0031461044FFF7F1F9E26AD5F8D830DB6A9A42C0D2C4E70F49D1F8D830DB6A03EB83039A000A44136B012B09D80AE0094AD2F8D2
:40338000FC300133C2F8FC304FF0000801E04FF00108044BD3F800310BB14FF001084046BDE8F081F498FF1F70B500F06BFB324BD3F8F020013AC3F8F020D3F8F030002BD3
:4033C00053D12D4BD3F8D43043BB002450E02A4C236ADD6805F11800FFF7D4F92E1D3046FFF7D0F9EB6A012202FA03F1D4F8E4200A43C4F8E42004F1300003EB83039A00FF
:4034000031461044FFF798F9EA6AD4F8D830DB6A9A4204D30122C4F8002100E00025164B5B69002BD3D10DB1FFF726FD124BD3F8FC4064B1FFF734FF18B101220E4BC3F8A8
:403440000021013CF6D100220B4BC3F8FC200A4BD3F800315BB14FF08052084B1A60BFF34F8FBFF36F8F012402E0002400E0002400F018FB204670BDF498FF1F04ED00E01D
:4034800038B505460C46FFF7FBFE164BD3F8EC002A681319904205D29A4209D9984209D300220CE09A4207D8984207D3002206E0002204E0012202E0012200E001222B605F
:4034C0001AB10021181AFFF721FEFFF76DFF38B94FF08052044B1A60BFF34F8FBFF36F8F38BD00BFF498FF1F04ED00E010B548B10446FFF7C5FE00212046FFF707FEFFF7C4
:4035000053FF00E0002038B94FF08052034B1A60BFF34F8FBFF36F8F10BD00BF04ED00E0324BD3F8F03023B10122304BC3F80021704710B52D4C0023C4F8003102F0A2F88B
:40354000D4F80431984205D9D4F8D820C31A116D0B441365254BC3F80401D3F8D8301B6B1A68B2F1A53F0BD15A68B2F1A53F07D19A68B2F1A53F03D1DB68B3F1A53F07D01E
:403580001A4BD3F8D800D3F8D8103431FDF776FD164AD2F8E430B3FA83F3DBB2C3F11F039800C418A10011444C6B64684C6302F130011844820008320A44944206D1606825
:4035C00003EB83018A0009490A445063074903EB83039A000A44536BDB68C1F8D830D1F8D8305833024A136010BD00BFF498FF1F2885FF1F38B5044600F044FA14B92B4B4A
:40360000D3F8D840251D2846FFF7BCF880B9E26A02EB82018B0025490B441B6B43B9012303FA02F2D1F8E43023EA0202C1F8E420A36A1BB104F11800FFF7A4F829461B4884
:40364000FFF77AF894F88434DBB2012B02D1002384F8843400F026FA144BD3F8DC302BB100F010FAFFF708FC00F01CFA0F4BD3F8D8309C4219D10D4BD3F8DC3043B14FF048
:4036800080520B4B1A60BFF34F8FBFF36F8F38BD064B1A68D3F8D4309A4204D10022034BC3F8D82038BDFFF73BFF38BDF498FF1F04ED00E010B50C46054BD3F8D8101831C5
:4036C000FFF746F801212046FFF720FD10BD00BFF498FF1F38B5C368DC6804F118052846FFF750F8164BD3F8F030B3B9251D2846FFF748F8E36A012202FA03F11048D0F88D
:40370000E4200A43C0F8E420303003EB83039A0029461044FFF710F803E029460948FFF70BF8E26A064BD3F8D830DB6A9A4204D90120034BC3F8000138BD002038BD00BF4F
:40374000F498FF1F0899FF1F10B5044600F09AF9044BD3F8F8202260D3F8EC30636000F0A1F910BDF498FF1F034BD3F8F8200260D3F8EC3043607047F498FF1FF8B504467A
:403780000D4600F07FF9124BD3F8EC106268881A2B68B3F1FF3F14D027680D4ED6F8F860B74201D091420ED2984206D21B1A2B602046FFF7D9FF002406E000232B60012455
:4037C00002E0002400E0012400F06CF92046F8BDF498FF1F0122024BC3F80021704700BFF498FF1F00285CD038B50346C26A2F49D1F8D810C96A8A424AD28169002906DB4A
:403800002A49D1F8D810C96AC1F105018161586902EB82029100264A1144884201D1012200E000226AB31C461D1D2846FEF7AAFF80B9E26A02EB82018B001C490B441B6BCF
:4038400043B9012303FA02F2D1F8E43023EA0202C1F8E4201548D0F8D830DB6AE362012404FA03F1D0F8E4200A43C0F8E420303003EB83039A0029461044FEF75DFF204601
:4038800038BD0A4AD2F8D820D26ADA62012038BD826C064BD3F8D830DB6A9A4203D3002038BD00207047012038BD00BFF498FF1F2499FF1F002838D038B50346C26C013A51
:4038C000C264C06A996C884231D092BB1C461D1D2846FEF757FF80B9E26A02EB82018B0015490B441B6B43B9012303FA02F2D1F8E43023EA0202C1F8E420A36CE362C3F18F
:403900000502A261012404FA03F10B48D0F8E4200A43C0F8E420303003EB83039A0029461044FEF709FF204638BD00207047002038BD002038BD00BFF498FF1F002848D00B
:4039400038B50346826C8A4200D20A46D96A8A423ED0D86C01283BD1DA629869002802DBC2F105029A61586901EB81018A0019490A44904201D1012200E0002242B31C461F
:403980001D1D2846FEF7FEFE80B9E26A02EB82018B0011490B441B6B43B9012303FA02F2D1F8E43023EA0202C1F8E420E36A012202FA03F10848D0F8E4200A43C0F8E4207E
:4039C000303003EB83039A0029461044FEF7B4FE38BD70472499FF1FF498FF1F064BD3F8D8302BB1044BD3F8D820D36C0133D364014BD3F8D8007047F498FF1F82B000235D
:403A000001934FF0A00383F31188BFF36F8FBFF34F8F019B002BFCD002B0704706480068006880F3088862B661B6BFF34F8FBFF36F8F00DF00BF000008ED00E04FF0807390
:403A400040F8043C21F0010140F8081C034B40F80C3C40F8202C4038704700BFFD390000074B19680868B0E8F00F80F30988BFF36F8F4FF0000080F311884EF00D0E704700
:403A8000CC99FF1F4FF0A00383F31188BFF36F8FBFF34F8F024A136801331360704700BFE480FF1F034A1368013B13600BB983F311887047E480FF1F000000000000000069
:403AC000EFF30980BFF36F8F0D4B1A6820E9F00F10602DE908404FF0A00080F31188FFF71FFD4FF0000080F31188BDE8084019680868B0E8F00F80F30988BFF36F8F7047D3
:403B0000CC99FF1F08B54FF0A00383F31188BFF36F8FBFF34F8FFFF7C3FB18B14FF08052024B1A60002383F3118808BD04ED00E0054B00221A6005490A6045F6BF51044ABA
:403B4000116007221A60704710E000E018E000E014E000E010B50B4B1A6842F460021A601A6842F060421A60FFF7E2FF0024064B1C60FFF753FFFFF7D3FCFFF73FFF204610
:403B800010BD00BF20ED00E0E480FF1F094A22F00702094BC3F840280020C3F8440848F6F871C3F84C18C3F84808516003F6480313607047049AFF1FBC21002070B50446E6
:403BC000FFF75EFB264BD3F850382BB9FFF7DEFF0122234BC3F8502834B1083414F0070F02D024F007040834621E48F6F6739A422BD81B49D1F8403801F5046101E0194689
:403C000013465A68944202D91A68002AF7D1154A93421CD00D6808351A680A605A68121B102A0CD91E1972605C6074680E4900E011460A6850688442FAD832600E605968C6
:403C40000A4A13685B1A136002E0002500E00025FFF7AAFB0DB9FDF71BFA284670BD00BFBC210020042A0020FC290020E880FF1FD0B170B50546A0F10806FFF701FB55F8D8
:403C8000044C0A4A00E01A46136859688C42FAD845F8083C166055F8043C054A11680B441360FFF781FB70BD704700BFFC290020E880FF1F38B504460D46002000F01EFF9F
:403CC000002000F027FF204600F094FBE01FC0B200F096FB2846FFF709FC38BD70B506460D461446012000F009FF002000F012FF304600F07FFB284600F082FB2046FFF7EA
:403D0000F5FB70BD70B506460D461446002000F0F5FE012000F0FEFE304600F06BFB284600F06EFB2046FFF7E1FB70BD70B588B0FCF7C6FBFCF7AAFAFDF72CFD43F2C8235B
:403D4000019342F6F823009342F228331A4619461846FDF797FDFCF719FA00210846FCF71DFAFCF7FBF902E06420FFF7BFFB01F0A1FA0128F8D006E003A8FDF735FD0A21BA
:403D80003720FFF797FFBDF81030012BF4D1BDF80E30012BF0D1BDF80C30012BECD1BDF81230012BE8D1BDF81430012BE4D1BDF81630012BE0D100210846FCF7EFF9594906
:403DC0005948FDF72DFBFCF7A9F9C8216420FFF771FFFFF75FFA0546024654495448FDF71FFB002405216420FFF764FF06A8FCF77FFB03A8FDF7F8FCBDF9182042F6E06337
:403E00009A420ADCBDF91A3042F6E0618B4204DC48498A4201DB8B421EDAFFF73BFA001B6E2819D9FFF736FA044602463F494248FDF7F6FA4FF49672FF210846FFF74EFF24
:403E400000210846FCF7AAF96421FF20FFF732FF64210846FFF72EFFFCF73AFA092815DC4FF49671FF20FFF725FF64210846FFF721FFFFF70FFA001B642807D9FFF70AFA47
:403E80000446024629492D48FDF7CAFABDF81030012B13D0BDF80E30012B0FD0BDF80C30012B0BD0BDF81230012B07D0BDF81430012B03D0BDF81630012B15D1C82164206B
:403EC000FCF780F900210846FCF768F94FF4C872C8210846FFF716FF00210846FCF75EF964210846FFF7E6FE01F0E4F900287FF479AF00210846FCF751F9FFF7CBF906462B
:403F00000A4C024621460E48FDF78AFA721B21460C48FDF785FAFCF73DF96420FFF7E6FAFBE700BF2CD6000034D6000044D6000048D6000020D1FFFF58D6000068D6000030
:403F400074D6000084D60000FEE700BFF0B40022174611E050F82760F3B226F0FF0608E001EB420511F812406D78A5550132013BDBB2002BF4D10137282FEBD9F0BC70475F
:403F800008B50A46002102F09DFF08BDF8B5174B1B78DBB2164E3478E4B2164F3D78EDB203F00701144A11701B090132137044F00303337045F003033B7020220F4B1A7055
:403FC00040230F490B7002310B70022301F21D210B7003310A700B4A13700A2001F036FC3D7034704422084B1A70F8BDCF010049F8460040F94600406E5800402D51004016
:4040000009590040585B00407658004008B502F07FFE08BD38B5484C2578EDB21722474B1A80182346490B7002310A80454A1370192204310A8002310B7002310A80424AC5
:40404000137077210232118002321370EF21023211800232137004223C493D48FFF7D6FF02223C4B1A7008224FF040231A70F32203F20A331A70032323708422364B1A705C
:404080000522013B1A70354C04E04FF4F07001F01FFC013C24B1324B1B7813F0200FF4D0254B1D700322A3F593631A702D4B1B78DBB22D4A137008222C4B1A8041F251223A
:4040C000023B1A80002419250CE0294B1B7803F0010343EA440404F003044FF4F07001F0F7FB013D0DB1032CEFD115B90320FFF72BFF204B4FF480721A8007221A7000229C
:404100001D490A704820023108701A700222033B1A7004220A331A70184A137843F03F031370013A137843F001031370013A137843F08003137038BD9846004080400040B2
:4041400082400040864000408E4000401C120048004100400043004009430040A08601000843004008010049A146004022420040254200400440004006400040A24300407E
:4041800038B572B63B4A137843F00403137000240CE0394D630019194A0011462A44084691882858FFF7ECFE0134E4B2082CF0D900240CE03048A20011194B000344B3F8C3
:4041C0004020D96B986BFFF721FF0134E4B2032CF0D92A494FF09040FFF7B8FE284A137843F0020313701032137843F002031370244C237843F040032370A2F58632513AE3
:40420000137843F01003137008221F491F48FFF7FDFE0A221E491F48FFF7F8FE08221E491E48FFF7F3FE0A221D491E48FFF7EEFE0A221D491D48FFF7E9FE08221C491D48DA
:40424000FFF7E4FE1C4A137843F0080313701B4D61232B70FFF7DEFE81232B700122184B1A70FFF793FE0E2221461648FFF7CEFE38BD00BFE846004094D60000A400004856
:4042800003500140A0430040E011004802510040E8110048C0510040F4110048F2510040FC11004810510040081200482051004014120048325100402243004000480040B2
:4042C00004000840B043004008B501F063FF03680C2B00D1FEE7FEE708B5094B1A681044084BC31AB3F5005F02DC054B186005E001F050FF0C2303604FF0FF32104608BDEC
:40430000EC80FF1F382B002008B5104E104D16E029686B68AC68002204E051F8040B43F8040B0432A242F8D1E868002203E0002143F8041B04328242F9D11035013E002EB9
:40434000E6D102F0DFF9FCF76BFEFEE701000000BCD8000008B5104A104B1A60104A136843F40073136000230AE0032B03D80D4A52F8231000E00C490C4A42F823100133F2
:404380002F2BF2D90A4B1A780A4B1A70074A0A4B1A60FFF7F5FE08BD0004FA050CED00E014ED00E000000000C94200000080FF1FBC760040C080FF1F08ED00E0024A137862
:4043C00043F080031370704776640040024A137803F07F031370704776640040014B1870704700BF06650040014B1870704700BF46650040014B1870704700BF26650040D4
:40440000014B1870704700BF36650040014B1870704700BF86640040014B1878704700BF66640040014B1878704700BF5665004008B501E0FFF7F6FFFFF7EEFF10F0100FAF
:40444000F8D108BD08B5144A137803F0C00343F00903137002F59072137843F001031370FF20FFF7BBFFFF20FFF7BEFF0020FFF7C1FF0020FFF7C4FF0020FFF7C7FF01F035
:404480002FFA064A137843F01003137001F02CFAFFF7CEFF08BD00BF766400409664004008B5054B1B7823B9FFF7CCFF0122024B1A70FFF783FF08BD102A002038B502229E
:4044C000114B1A7081220E3B1A70082202331A700F2511331D70002401331C704FF400420A4B1A600721284601F0CEF90849284601F0B6F91022074B1A70074B1C70074B4F
:404500001C70074B1C7038BDD649004080E100E071450000202B0020262B00202E2B0020242B002008B501F0DBF9064A137843F0040313701032137843F00403137001F06D
:40454000D3F908BDA543004008B5074B1B7823B9FFF7B4FF0122044B1A70FFF7E3FF4FF40042024B1A6008BD112A002000E100E038B5A54B1C78A54B1B7813F0400F00F024
:404580003A81E4B214F0010F00F01D819F4B1B78453B052B00F21481DFE813F006008200120112010600DF0004F0DF0504F00A04082C42D1954B1B78DBB2452B35D1944B81
:4045C0001B7813F0FF0F10D0924B1B681B78DBB2914A137004228C4B1A7001228F4B1A7046228A4B1A702C46EDE08D4B1B7813F0020F0DD08B4A137843F00A031370602244
:40460000824B1A704FF40042874B1A602C46DAE0864A137843F0100313701022844B1A700422023B1A702C46CDE00022764B1A704A22764B1A702C46C5E00A2C2BD1794A3B
:40464000137843F0A0031370754B1B7813F0020F14D06E4B1B7813F0080F01D0092300E00A23704A11780B4313706022674B1A704FF400426C4B1A602C46A4E06B4A1378DD
:4046800043F0100313701022694B1A700422023B1A702C4697E0002001F0D6F82C4692E014F0020F36D15D4B1A78D2B2584B1B78DBB29A4210D2594A1378DBB25549096803
:4046C000CB5CDBB254490B7004214F4B197013780133DBB2137076E0514B1B7813F0020F0CD0504A137843F00A0313706022474B1A704FF400424C4B1A6064E04B4A1378E2
:4047000043F0100313701022494B1A700422023B1A7058E0424B1B7813F0020F0CD0414A137843F09A0313706022384B1A704FF400423D4B1A6046E03C4A137843F010032F
:40474000137010223A4B1A700422023B1A70354A137843F09003137035E0364A1378DBB2354908682C490978C9B2C15413780133DBB213701278D2B2304B1B78DBB29A42C0
:4047800003D21022204B1A701DE0254B1B7813F0020F0CD0234A137843F00903137060221A4B1A704FF400421F4B1A600BE01F4A137843F0100313700022134B1A7002E0E5
:4047C000002001F041F814F0200F1CD00F4B1B7813F0080F01D0012300E00223114A11780B431370114A137803F0EF0313701022064B1A7038BD054B1B7813F0100F02D172
:404800001022024B1A7038BDD7490040202B0020252B0020302B0020D8490040242B00202C2B0020262B002080E100E0D6490040D94900402E2B0020282B00202D2B0020A6
:40484000002948D070B40C4626490978C9B2102906D12549097811F0080F11D1002112E020490978C9B260290CD14FF400451F490D601F4D297801F0F7012970002102E050
:40488000012100E0022149BB4526164D2E700026184D2E70184D2A70184A1460184A1370134C227802F0FD0222704200D2B21548027013F0010F06D012220B4B1A7004224C
:4048C000023B1A7002E00122074B1A704FF400420D4B1A6002E0022108467047084670BC704700BF202B0020D949004080E200E0262B0020242B0020252B0020302B0020E5
:404900002C2B0020D849004000E100E000294AD070B40C4627490978C9B2102906D12649097811F0080F11D1002112E021490978C9B260290CD14FF4004520490D60204D15
:40494000297801F0F7012970002102E0012100E0022159BB4926174D2E700026194D2E70194D2A70194A1460194A1370144C227802F0FE0222704200D2B242F001021548AA
:40498000027013F0010F06D012220B4B1A700422023B1A7002E00122074B1A704FF400420D4B1A6002E0022108467047084670BC704700BF202B0020D949004080E200E05A
:4049C000262B00202E2B00202D2B0020282B00202C2B0020D849004000E100E04FF40042084B1A60084B1878C0B2084B1B7813F0400F01D040F004004FF40042044B1A6017
:404A0000704700BF80E100E0262B0020202B002000E100E04FF40043044A1360044A107800211170034A1360704700BF80E100E0262B002000E100E07222074B1A70202208
:404A400003331A700622623B1A70472210331A700022AC3B1A7070478465004010B500F03FFF04460A4A137843F0200313700332137843F010031370FE3A137843F01003F7
:404A8000137000F0C5FE204600F02EFF10BD00BF9465004008B5054B1B7823B9FFF7CCFF0122024B1A70FFF7D9FF08BD122A0020014B1878704700BF44650040024B18783A
:404AC00000F07F00704700BF67650040014B1870704700BF89640040014B1878704700BF69640040034B1B7813F0040FFAD1024B187070476964004047650040044A1378CF
:404B000003F07F03C001C0B218431070704700BF30510040044A137803F0FE0300F0010018431070704700BFF0510040044A137803F0DF03400100F020001843107070479A
:404B4000F0510040044A137803F0F10300F00E0018431070704700BF7D500040084A137843F0020313701032137843F00203137002F65932137843F001031370704700BF3A
:404B8000A3430040014B1870704700BF0F4F0040014B1878704700BF0F4F0040014B188880B27047104F0040014B1880704700BF104F0040014B188880B27047144F004012
:404BC000014B1880704700BF124F004008B5164A137803F0010313700232137803F0FC031370124B1A7802F0CF021A701A7842F030021A701A7802F0F0021A701A7842F0E4
:404C00000F021A700A4A137843F0010313704FF6FF70FFF7C9FF4FF6FF70FFF7D1FF0820FFF7B0FF08BD00BF0C4F0040174F00400D4F004008B5054B1B7823B9FFF7C6FFEF
:404C40000122024B1A70FFF789FF08BD142A0020024B1B88024B188880B27047124F0040144F0040084A137843F0080313701032137843F00803137002F67132137843F00A
:404C800001031370704700BFA3430040014B1870704700BF274F0040014B1878704700BF274F0040014B188880B27047284F0040014B1880704700BF284F0040014B188840
:404CC00080B270472C4F0040014B1880704700BF2A4F004008B5164A137803F0010313700232137803F0FC031370124B1A7802F0CF021A701A7842F030021A701A7802F067
:404D0000F0021A701A7842F00F021A700A4A137843F0010313704FF6FF70FFF7C9FF4FF6FF70FFF7D1FF0820FFF7B0FF08BD00BF244F00402F4F0040254F004008B5054B90
:404D40001B7823B9FFF7C6FF0122024B1A70FFF789FF08BD152A0020024B1B88024B188880B270472A4F00402C4F0040044A137803F0FD03400000F00200184310707047A3
:404D800000510040084A137843F0040313701032137843F00403137002F66532137843F001031370704700BFA3430040014B1870704700BF1B4F0040014B1878704700BF88
:404DC0001B4F0040014B188880B270471C4F0040014B1880704700BF1C4F0040014B188880B27047204F0040014B1880704700BF1E4F004008B5164A137803F001031370D7
:404E00000232137803F0FC031370124B1A7802F0CF021A701A7842F030021A701A7802F0F0021A701A7842F00F021A700A4A137843F0010313704FF6FF70FFF7C9FF4FF6D3
:404E4000FF70FFF7D1FF0820FFF7B0FF08BD00BF184F0040234F0040194F004008B5054B1B7823B9FFF7C6FF0122024B1A70FFF789FF08BD162A0020024B1B88024B1888FA
:404E800080B270471E4F0040204F0040044A137803F0EF03000100F01000184310707047C0510040044A137803F0F10300F00E0018431070704700BF64500040044A13782F
:404EC00003F0EF03000100F01000184310707047F0510040044A137803F0F10300F00E0018431070704700BF7C500040084A137843F0010313701032137843F00103137080
:404F000002F64D32137843F001031370704700BFA3430040014B1870704700BF034F0040014B1878704700BF034F0040014B188880B27047044F0040014B1880704700BF97
:404F4000044F0040014B188880B27047084F0040014B1880704700BF064F004008B5164A137803F0010313700232137803F0FC031370124B1A7802F0CF021A701A7842F0ED
:404F800030021A701A7802F0F0021A701A7842F00F021A700A4A137843F0010313704FF6FF70FFF7C9FF4FF6FF70FFF7D1FF0820FFF7B0FF08BD00BF004F00400B4F0040D7
:404FC000014F004008B5054B1B7823B9FFF7C6FF0122024B1A70FFF789FF08BD172A0020024B1B88024B188880B27047064F0040084F0040044A137803F0EF03000100F0AB
:40500000100018431070704730510040044A137803F0F10300F00E0018431070704700BF1C500040014B1878C009704711510040044A137803F07F03C001C0B218431070F8
:40504000704700BF00510040024A137843F08003137070477D640040014B1870704700BF8D640040014B1878704700BF6D640040014B1880704700BF58680040014B18881D
:4050800080B2704798680040014B1880704700BF1868004000F00300044B1A7802F0FC021A701A7810431870704700BF7D64004008B501E0FFF7E2FFFFF7D4FF10F0080F06
:4050C000F8D108BD08B54FF6FF70FFF7D1FF4FF6FF70FFF7D9FF00F003FC084A137843F01003137000F000FC0020FFF7D3FFFFF7DFFF0320FFF7B0FF08BD00BF9D6400409F
:4051000008B5054B1B7823B9FFF7DCFF0122024B1A70FFF799FF08BD182A0020024B187800F00100704700BF21510040014B1B681866704708ED00E04001C0B2014B18701D
:40514000704700BF08E400E04FF48072014B1A60704700BF00E100E04FF48072014B1A60704700BF80E100E010B50446FFF7F4FF2046FFF7DBFF0720FFF7DEFFFFF7E4FF08
:4051800010BD00BF014B1B681864704708ED00E04001C0B2014B1870704700BF00E400E00122014B1A60704700E100E00122014B1A60704780E100E010B50446FFF7F6FF8F
:4051C0002046FFF7DFFF0720FFF7E2FFFFF7E8FF10BD00BF024A137843F08003137070477B640040014B1870704700BF8B640040014B1878704700BF6B64004008B501464A
:40520000014800F059FB08BD26640040024B186820F07F40704700BF4664004008B50146014800F049FB08BD0664004000F00300044B1A7802F0FC021A701A7810431870AB
:40524000704700BF7B64004008B501E0FFF7DEFFFFF7CEFF10F0080FF8D108BD08B56FF07F40FFF7CBFF6FF07F40FFF7D7FF00F037FB084A137843F01003137000F034FB54
:405280000020FFF7D3FFFFF7DFFF0220FFF7AAFF08BD00BF9B64004008B5054B1B7823B9FFF7DCFF0122024B1A70FFF793FF08BD192A0020024B1878C0F38000704700BF31
:4052C00021510040024A137843F08003137070477F640040014B1870704700BF8F640040014B1878704700BF6F640040014B188880B270475C680040014B1880704700BFFD
:405300005C680040014B188880B270479C680040014B1880704700BF1C680040024B1B78024B188880B270470E6400409C68004008B501E0FFF7E6FFFFF7D2FF10F0080F2F
:40534000F8D108BD08B54FF6FF70FFF7D5FF4FF6FF70FFF7DDFF00F0C3FA064A137843F01003137000F0C0FAFFF7E2FF0120FFF7B1FF08BD9F64004008B5054B1B7823B9C1
:40538000FFF7E0FF0122024B1A70FFF79BFF08BD1A2A0020024A137843F08003137070477C640040014B1870704700BF84640040014B1878704700BF64640040014B1888C6
:4053C00080B2704752680040014B1880704700BF52680040014B188880B2704792680040014B1880704700BF12680040024B1B78024B188880B270470964004092680040B6
:4054000008B501E0FFF7E6FFFFF7D2FF10F0080FF8D108BD08B54FF6FF70FFF7D5FF4FF6FF70FFF7DDFF00F05BFA064A137843F01003137000F058FAFFF7E2FF0120FFF7AD
:40544000B1FF08BD9464004008B5054B1B7823B9FFF7E0FF0122024B1A70FFF79BFF08BD1B2A0020044A137803F0BF03800100F0400018431070704720510040044A13781F
:4054800003F0F10300F00E0018431070704700BF16500040044A137803F07F03C001C0B218431070704700BF20510040044A137803F0F10300F00E0018431070704700BF7E
:4054C00017500040014B1870704700BF736400407222084B1A702022013B1A700622A3F5B4731A70472210331A70002252331A70704700BF8A65004010B500F0F1F90446C5
:405500000A4A137843F020031370013A137843F010031370A2F58372137843F01003137000F084F9204600F0DFF910BD9A65004008B5054B1B7823B9FFF7CAFF0122024BF2
:405540001A70FFF7D9FF08BD1C2A0020014B1878704700BF49650040024B187800F07F00704700BF69650040014B1870704700BF83640040014B1878704700BF63640040CE
:40558000034B1B7813F0040FFAD1024B187070476364004040640040014B1B689865704708ED00E04001C0B2014B1870704700BF06E400E04022014B1A60704700E100E0F3
:4055C0004022014B1A60704780E100E010B50446FFF7F6FF2046FFF7DFFF0620FFF7E2FFFFF7E8FF10BD00BF4022014B1A60704780E200E0014B1B685865704708ED00E0B8
:405600004001C0B2014B1870704700BF05E400E02022014B1A60704700E100E02022014B1A60704780E100E010B50446FFF7F6FF2046FFF7DFFF0620FFF7E2FFFFF7E8FF16
:4056400010BD00BF2022014B1A60704780E200E0024A137843F080031370704770640040014B1870704700BF85640040014B1878704700BF65640040014B1860704700BFBA
:4056800002640040024B1B78024B1868704700BF0264004042640040014B1868704700BF42640040014B1860704700BF22640040014B1860704700BF3264004008B501E0BF
:4056C000FFF7EAFFFFF7D2FF10F0400FF8D108BD08B5124B1A7802F0F8021A701A7802F0FC021A70FFF7EAFF6FF00100FFF7DAFF0020FFF7C1FF0020FFF7B2FFFFF7B6FFA3
:405700000020FFF7D5FF00F0EBF8054A137843F01003137000F0E8F808BD00BF706400409564004008B5054B1B7823B9FFF7D0FF0122024B1A70FFF78BFF08BD1E2A002080
:40574000044A137803F0FE0300F0010018431070704700BF30510040014B1B681865704708ED00E04001C0B2014B1870704700BF04E400E01022014B1A60704700E100E04C
:405780001022014B1A60704780E100E010B50446FFF7F6FF2046FFF7DFFF0720FFF7E2FFFFF7E8FF10BD00BF1022014B1A60704780E200E0014B1B68D864704708ED00E0D6
:4057C0004001C0B2014B1870704700BF03E400E00822014B1A60704700E100E00822014B1A60704780E100E010B50446FFF7F6FF2046FFF7DFFF0720FFF7E2FFFFF7E8FF86
:4058000010BD00BF0822014B1A60704780E200E0054A137843F0040313701032137843F004031370704700BFA2430040054A137843F0080313701032137843F0080313700E
:40584000704700BFA243004001BE704708B5034B1B7A00FB03F000F03BF808BDF080FF1F70B504460E46074B1D681F2802D90020FFF7EAFF04F01F04103455F8240045F84F
:40588000246070BD08ED00E038B504460D46072902D90020FFF7D8FF1F2C02D90020FFF7D3FF04F01F0000F1604000F564406D01EDB2057038BD00BFCBB20370C1F3072391
:4058C0004370C1F307418170704700BF000000000230800803D000BF01380046FCD17047EFF3108072B6704780F31088704700BF81F0004102E000BF83F0004330B54FEA4A
:4059000041044FEA430594EA050F08BF90EA020F1FBF54EA000C55EA020C7FEA645C7FEA655C00F0E2804FEA5454D4EB5555B8BF6D420CDD2C4480EA020281EA030382EA8F
:40594000000083EA010180EA020281EA0303362D88BF30BD11F0004F4FEA01314FF4801C4CEA113102D0404261EB410113F0004F4FEA03334CEA133302D0524263EB430317
:4059800094EA050F00F0A780A4F10104D5F1200E0DDB02FA0EFC22FA05F2801841F1000103FA0EF2801843FA05F359410EE0A5F120050EF1200E012A03FA0EFC28BF4CF055
:4059C000020C43FA05F3C01851EBE37101F0004507D54FF0000EDCF1000C7EEB00006EEB0101B1F5801F1BD3B1F5001F0CD349085FEA30004FEA3C0C04F101044FEA445215
:405A000012F5800F80F09A80BCF1004F08BF5FEA500C50F1000041EB045141EA050130BD5FEA4C0C404141EB010111F4801FA4F10104E9D191F0000F04BF01460020B1FA51
:405A400081F308BF2033A3F10B03B3F120020CDA0C3208DD02F1140CC2F10C0201FA0CF021FA02F10CE002F11402D8BFC2F1200C01FA02F120FA0CFCDCBF41EA0C01904030
:405A8000E41AA2BF01EB0451294330BD6FEA04041F3C1CDA0C340EDC04F11404C4F1200220FA04F001FA02F340EA030021FA04F345EA030130BDC4F10C04C4F1200220FA1A
:405AC00002F001FA04F340EA0300294630BD21FA04F0294630BD94F0000F83F4801306BF81F480110134013D4EE77FEA645C18BF7FEA655C29D094EA050F08BF90EA020FB7
:405B000005D054EA000C04BF1946104630BD91EA030F1EBF0021002030BD5FEA545C05D14000494128BF41F0004130BD14F580043CBF01F5801130BD01F0004545F0FE41C4
:405B400041F470014FF0000030BD7FEA645C1ABF194610467FEA655C1CBF0B46024650EA013406BF52EA033591EA030F41F4002130BD00BF90F0000F04BF0021704730B5B8
:405B80004FF4806404F132044FF000054FF0000150E700BF90F0000F04BF0021704730B54FF4806404F1320410F0004548BF40424FF000013EE700BF42004FEAE2014FEA2F
:405BC00031014FEA02701FBF12F07F4393F07F4F81F06051704792F0000F14BF93F07F4F704730B54FF4607401F0004521F0004120E700BF50EA010208BF704730B54FF067
:405C000000050AE050EA010208BF704730B511F0004502D5404261EB41014FF4806404F132045FEA915C3FF4DCAE4FF003025FEADC0C18BF03325FEADC0C18BF033202EBB8
:405C4000DC02C2F1200300FA03FC20FA02F001FA03FE40EA0E0021FA02F11444C1E600BF70B54FF0FF0C4CF4E06C1CEA11541DBF1CEA135594EA0C0F95EA0C0F00F0DEF8C2
:405C80002C4481EA030621EA4C5123EA4C5350EA013518BF52EA033541F4801143F4801338D0A0FB02CE4FF00005E1FB02E506F00042E0FB03E54FF00006E1FB03569CF0E6
:405CC000000F18BF4EF0010EA4F1FF04B6F5007F64F5407404D25FEA4E0E6D4146EB060642EAC62141EA55514FEAC52040EA5E504FEACE2EB4F1FD0C88BFBCF5E06F1ED842
:405D0000BEF1004F08BF5FEA500E50F1000041EB045170BD06F0004646EA010140EA020081EA0301B4EB5C04C2BFD4EB0C0541EA045170BD41F480114FF0000E013C00F3BF
:405D4000AB8014F1360FDEBF002001F0004170BDC4F10004203C35DA0C341BDC04F11404C4F1200500FA05F320FA04F001FA05F240EA020001F0004221F0004110EBD3706F
:405D800021FA04F642EB06015EEA430E08BF20EAD37070BDC4F10C04C4F1200500FA04F320FA05F001FA04F240EA020001F0004110EBD37041F100015EEA430E08BF20EAF7
:405DC000D37070BDC4F1200500FA05F24EEA020E20FA04F301FA05F243EA020321FA04F001F0004121FA04F220EA020000EBD3705EEA430E08BF20EAD37070BD94F0000FF2
:405E00000FD101F00046400041EB010111F4801F08BF013CF7D041EA060195F0000F18BF704703F00046520043EB030313F4801F08BF013DF7D043EA0603704794EA0C0F63
:405E40000CEA135518BF95EA0C0F0CD050EA410618BF52EA4306D1D181EA030101F000414FF0000070BD50EA410606BF1046194652EA430619D094EA0C0F02D150EA0136A5
:405E800013D195EA0C0F05D152EA03361CBF104619460AD181EA030101F0004141F0FE4141F470014FF0000070BD41F0FE4141F4780170BD70B54FF0FF0C4CF4E06C1CEA3F
:405EC00011541DBF1CEA135594EA0C0F95EA0C0F00F0A7F8A4EB050481EA030E52EA03354FEA013100F088804FEA03334FF0805545EA131343EA12634FEA022245EA11151A
:405F000045EA10654FEA00260EF000419D4208BF964244F1FD0404F5407402D25B084FEA3202B61A65EB03055B084FEA32024FF480104FF4002CB6EB020E75EB030E22BFDD
:405F4000B61A754640EA0C005B084FEA3202B6EB020E75EB030E22BFB61A754640EA5C005B084FEA3202B6EB020E75EB030E22BFB61A754640EA9C005B084FEA3202B6EBE7
:405F8000020E75EB030E22BFB61A754640EADC0055EA060E18D04FEA051545EA16754FEA06164FEAC30343EA52734FEAC2025FEA1C1CC0D111F4801F0BD141EA00014FF066
:405FC00000004FF0004CB6E711F4801F04BF01430020B4F1FD0C88BFBCF5E06F3FF6AFAEB5EB030C04BFB6EB020C5FEA500C50F1000041EB045170BD0EF0004E4EEA1131AC
:4060000014EB5C04C2BFD4EB0C0541EA045170BD41F480114FF0000E013C90E645EA060E8DE60CEA135594EA0C0F08BF95EA0C0F3FF43BAF94EA0C0F0AD150EA01347FF4BC
:4060400034AF95EA0C0F7FF425AF104619462CE795EA0C0F06D152EA03353FF4FDAE1046194622E750EA410618BF52EA43067FF4C5AE50EA41047FF40DAF52EA43057FF4AB
:40608000EBAE12E74FF0FF3C06E000BF4FF0010C02E000BF4FF0010C4DF804CD4FEA410C7FEA6C5C4FEA430C18BF7FEA6C5C1BD001B050EA410C0CBF52EA430C91EA030F93
:4060C00002BF90EA020F0020704710F1000F91EA030F58BF994208BF90422CBFD8176FEAE37040F0010070474FEA410C7FEA6C5C02D150EA013C07D14FEA430C7FEA6C5C55
:40610000D6D152EA033CD3D05DF8040B704700BF8446104662468C461946634600E000BF01B5FFF7B7FF002848BF10F1000F01BD4DF808EDFFF7F4FF0CBF012000205DF89C
:4061400008FB00BF4DF808EDFFF7EAFF34BF012000205DF808FB00BF4DF808EDFFF7E0FF94BF012000205DF808FB00BF4DF808EDFFF7CEFF94BF012000205DF808FB00BF97
:406180004DF808EDFFF7C4FF34BF012000205DF808FB00BF014B1868704700BF2885FF1FB1F90C302DE9F0419AB20D46110780463CD46A6843F40063002AAB8173DDAC6AB2
:4061C000002C4BD09BB203F48052002192B2D8F80060C8F80010002A69D02A6D5F0705D569682B6B521A0BB1EB6BD21A0023E9694046A047441C3CD0B5F90C30296923F4F1
:4062000000630022AB81DB0485E8060049D4296BC8F8006011B305F14003994202D0404600F060F900202863BDE8F0812E69AEB190072C680CBF6B6900232E60A41BAB6015
:406240000AE0234632466F6AE9694046B8470028A4EB0004064404DD002CF2DC0020BDE8F081AB894FF0FF3043F04003AB81BDE8F081D8F800201D2AF3D81A4BD34003F0C6
:40628000010383F00104002BEBD0B5F90C30296923F400632960D9046C60AB81B7D5002AB5D12865B3E7EA6B002A88DCD6E70123E9694046A047431C024602D0AB89AC6A7F
:4062C0008CE7D8F80030002BF8D01D2B01D0162B02D1C8F80060C1E7AB8943F04003AB81BDE8F0810100402010B5044682B008B1836B53B1B1F90C0008B902B010BD2046AE
:4063000002B0BDE81040FFF74BBF019100F092F80199EFE720B1054B01461868FFF7E4BF034B0449186800F0C5B900BF2885FF1FF4D60000E9620000014900F0BBB900BF24
:40634000DDB800002DE9F04F074635487D68002407F53B7204230321F863C7F8E412C7F8E822C7F8E04283B02C606C60AC606C66EC812C616C61AC61AB81214605F15C0090
:40638000082200F09FFDDFF89CB0BE68DFF898A0DFF89890DFF8988001230922C5F820B0C5F824A0C5F82890C5F82C80ED612146F381B28106F15C0034607460B4607466A1
:4063C00034617461B4610822019300F07BFDFD6812200222F661C6F820B0C6F824A0C6F82890C6F82C802146A881EA812C606C60AC606C662C616C61AC6105F15C000822E2
:4064000000F060FD019BED61C5F820B0C5F824A0C5F82890C5F82C80BB6303B0BDE8F08F39630000D1700000F57000003171000051710000836B03B17047FFF783BF00BF4E
:40644000704700BF704700BFF8B50C46224F064600F086FDBB685D6825F00305291B01F6EF7121F47F6121F00F01A1F58054B4F5805F07DB0021304600F018FEBB682B4448
:40648000984204D0304600F06DFD0020F8BD6142304600F00BFE01300DD0104BBA6819682D1B45F001053046091B5560196000F059FD0120F8BD0021304600F0F7FDBA6867
:4064C000831A0F2BDEDD064C0449246843F00103001B53600860D5E72C85FF1F2C2A00203889FF1F002945D02DE9F0410D46804600F036FD55F8047C6A49A5F1080427F098
:406500000103E2188E685068B24220F0030062D0FE0750600BD455F8087C01F1080EE41BA5683B4475456FD0E768EF60BD6015186D68ED0742D543F001026260E350B3F5EA
:40654000007F18D2DB0848689D100122013351F8337002FA05F501EBC3022843083AE260A760486041F83340FC604046BDE8F04100F0F8BC70475A0A042A53D89A0902F1D8
:4065800039077F0002F1380501EB870051F827200838904243494DD0516821F003018B4202D292689042F7D1D068E060A2608460D4604046BDE8F04100F0D4BC95683A4F37
:4065C0000344BD423FD0D06843F00102E86085606260E350B3E7FF07034407D455F8085C641BE268A0682B44C26090602F4A43F001001268606093428C60B6D32C4B4046C3
:406600001968FFF721FFB0E711184968C90744D491680344D26843F00100CA6091606060E350A2E7142A17D802F15C077F0002F15B05A9E7AA104B68012505FA02F2134364
:406640004B600246B1E743F001024C610C61E560A5606260E35088E7542A06D81A0B02F16F077F0002F16E058EE7B2F5AA7F06D8DA0B02F178077F0002F1770584E740F2BD
:406680005450824206D89A0C02F17D077F0002F17C0579E7FE277E2576E743F001026260E35062E72C85FF1F3485FF1F3489FF1F282A00202DE9F84310F538761ED08846D8
:4066C00007464FF000097568B468013D10D4A389013D012B08D9B4F90E30013304D021463846C04749EA00096B1C04F16804EED13668002EE7D14846BDE8F883B1464846FA
:40670000BDE8F88370B50F4E0F4D761BB61018BF002405D0013455F8043B9847A642F9D10A4E0B4D07F0B6F8761BB61018BF002406D0013455F8043B9847A642F9D170BDE6
:4067400070BD00BFA0D80000A0D80000ACD80000A0D800002DE9F04F01F10B05162D83B0064640F2A08035F0070500F1C080A94200F2BD8000F0F4FBB5F5FC7FC0F0908294
:406780006B0A00F0BB80042B00F27781A80900F1390E4FEA4E013830BE4F07EB81014C680839A14207D1AEE0002A80F2AE80E468A14200F0A880636823F003035A1B0F2AE5
:4067C000F2DDB4493C6901F1080E744500F0A881636823F003035A1B0F2A00F38E81002AC1F814E0C1F810E080F29380B3F5007F80F05C81DB084A684FEAA3094FF0010C7B
:40680000013351F833800CFA09F901EBC30C49EA0202ACF1080CC4F80CC0C4F808804A6041F83340C8F80C40831001249C4094427CD8144206D120F003006400144200F1A6
:406840000400FAD007EBC009CC468046DCF80C108C4507D166E1002A80F27481C9688C4500F060814B6823F003035A1B0F2AF2DD0C46CB6854F808CF45F00108C1F8048007
:406880000D4442F00101CCF80C303046C3F808C07D613D61C5F80CE0C5F808E06960AA5000F060FB1FE0102921D800F059FB102506230220774F07EB83035C68A3F10802ED
:4068C000944200F038816368E16823F0030323445A68A56842F00102E96030468D605A6000F040FB0834204603B0BDE8F08F002420460C23336003B0BDE8F08F80214FF074
:40690000400E3F2048E770465BE723445A68E168DFE723445A68304642F001025A60083400F020FB204603B0BDE8F08FBC68636823F00308A84504D3C5EB08030F2B00F380
:406940008C80554BDFF860911A68D9F800302A44013304EB080A00F0608102F580520F3222F47F6222F00F0211463046019200F09DFBB0F1FF3F8346019A00F058818245CD
:4069800000F2FC80454BDA4519681144196000F05381D9F80000DFF810E101301BBFCAEB0B0A5144CEF800B019601BF0070100F01781C1F10800C1F58051834408315A443B
:4069C000C2F30B02C2EB010949463046019300F06DFB431C019B00F03F81CBEB00024A4442F001021968BC424944C7F808B01960CBF80420DFF8A49016D0B8F10F0F40F23A
:406A0000FD806268A8F10C0323F0070302F00102E0184FF0050E1A430F2B6260C0F804E0C0F808E000F21C811D4BBC681A68914288BF19601B4B1A689142626888BF196001
:406A400022F003029542A2EB050301D80F2B04DC304600F087FA002445E745F0010243F00103254462603046BD6008346B6000F079FA204603B0BDE8F08F142B71D9542B8D
:406A800000F2A480280B00F16F0E4FEA4E016E3082E600BF2C85FF1F282A00202C2A0020242A0020202A00203889FF1F5A0A042A5ED9142A00F2B38002F15C0149005B3212
:406AC00007EB810C57F82110ACF1080C8C45DFF8D88100F088804A6822F00302934202D289688C45F7D1D1F80CC07A68C4F80CC0A160CCF80840CC6096E645F0010742F0CE
:406B000001032544676030464D610D61C5F80CE0C5F808E06B60AA50083400F023FAE2E64A6881E608F1010818F0030F0CF1080C7FF48CAE30E0DC68A34208BF02303FF413
:406B400040AEC0E60C460B445A68C96854F8085F42F001025A603046E9608D6000F002FAC1E603F15C0E03F15B004FEA4E0113E69A0902F1390149003832A1E7BC424A4B40
:406B80003FF400AF9C68626822F003025AE759F80839994540F0828010F0030F00F1FF30F5D17B6823EA04037B6064009C423FF6BDAE002C3FF4BAAE1C4240467FF442AE71
:406BC00064001C4200F10400FAD03BE6B3F5AA7F18D8E80B00F1780E4FEA4E017730DBE54FF48051EBE60121D8F80430921001FA02F21A43C8F80420614677E70123CBF810
:406C0000043025E740F25452934220D8A80C00F17D0E4FEA4E017C30BEE51032A4E6542A26D81A0B02F16F0149006E3248E7BC68626822F0030205E7CAF30B0000287FF42C
:406C4000A8AE4244BB6842F001025A60ECE6FE214FF07F0E7E209FE501224FF00009C1E604F108013046FFF73DFCD9F80010DBE6B2F5AA7F05D8DA0B02F178014900773200
:406C80001EE740F254518A4205D89A0C02F17D0149007C3214E7FE217E2211E77B6884E7E808431C5B0005E62C85FF1F032A70B426D940EA01039B0711D004780D78AC42ED
:406CC00022D10244431C05E013F8014B11F8015FAC4219D19342F7D1002070BC70470C4603461E6825681846AE42214603F1040304F10404E1D1043A032A18462146F0D8DA
:406D0000002ADAD11046E8E7601B70BC704700BF844641EA000313F0030349D1403A23D30B6803604B6843608B688360CB68C3600B6903614B6943618B698361CB69C361F9
:406D40000B6A03624B6A43628B6A8362CB6AC3620B6B03634B6B43638B6B8363CB6BC36340304031403ADBD230320BD30B6803604B6843608B688360CB68C360103010311A
:406D8000103AF3D20C3205D351F8043B40F8043B043AF9D2043208D0D2071CBF11F8013B00F8013B01D30B8803806046704700BF082A13D38B07B1D010F00303AED0C3F102
:406DC0000403D21ADB071CBF11F8013B00F8013BA4D331F8023B20F8023B9FE7043AD9D3013A11F8013B00F8013BF9D20B7803704B7843708B788370604670478842F0B51B
:406E00000DD98B1898420AD28118002A51D09A1A13F8014D934201F8014DF9D1F0BD0F2A48D941EA00039B0746D1154600F1100401F1100353F8106C103D44F8106C53F8D2
:406E40000C6C0F2D44F80C6C53F8086C04F1100444F8186C53F8046C03F1100344F8146CE8D8A2F1100323F00F0302F00F0E1033BEF1030F1944034421D90E4674461D1F1E
:406E800056F8047B043C032C45F8047FF8D8AEF1040424F0030404342344214402F0030262B1013B0A4411F8014B8A4203F8014FF9D1F0BD0346F3E70346F2E7F0BD72461F
:406EC000EEE700BF70B4840746D0541E002A41D0CDB2034602E0621EE4B3144603F8015B9A07F8D1032C2ED9CDB245EA05250F2C45EA054519D9264603F11002103E0F2EFF
:406F000042F8105C42F80C5C42F8085C42F8045C02F11002F2D8A4F1100222F00F0204F00F041032032C13440DD91E462246043A032A46F8045BFAD8221F22F0030204324F
:406F4000134404F003042CB1C9B21C4403F8011BA342FBD170BC704714460346C2E700BF704700BF704700BF0FB410B5074B82B004AC54F8042B186823468168019402F0D5
:406F800013F802B0BDE8104004B070472885FF1FF0B5054689B008460C4600F03BF9431C144F0393AB6B012604A9022204940590AC680697079601910292B3B1B4F90C30A8
:406FC0009A0406D4626E43F4005322F40052A38162662146284601AA04F0D6FC002814BF4FF0FF300A2009B0F0BD2846FFF722FAE4E700BFD4D30000024B01461868FFF771
:40700000C7BF00BF2885FF1F38B50C460968054609B1FFF7F9FF21462846BDE83840FFF761BA00BF204B1B6883423CD0C36C70B505468BB10026995939B10C682846FFF767
:4070400051FA2146002CF8D1EB6C0436802EF2D119462846FFF746FA296C11B12846FFF741FAD5F8481151B105F5A676B14206D00C682846FFF736FAA6422146F8D1696D71
:4070800011B12846FFF72EFAAB6B03B970BDEB6B28469847D5F8E0120029F7D02846BDE87040FFF7B1BF70472885FF1F38B5074C0023054608462360FDF70EF9431C00D0DD
:4070C00038BD2368002BFBD02B6038BD342B002010B50C46B1F90E1005F0CEF9002803DB236D0344236510BDA38923F48053A38110BD00BF2DE9F0410C46B1F90C101F46C4
:40710000CB051646054607D5B4F90E100223002204F0CCFDB4F90C1021F48051A1813B463246B4F90E102846BDE8F04103F07EBB10B50C46B1F90E1004F0B8FDA389421C16
:407140000EBF23F4805343F480532065A38110BDB1F90E1003F0F4BB80EA0102844612F0030F4FD111F0030F32D14DF8044D11F0040F51F8043B0BD0A3F101329A4312F03A
:40718000803F04BF4CF8043B51F8043B16D100BF51F8044BA3F101329A4312F0803FA4F101320BD14CF8043BA24312F0803F04BF51F8043B4CF8044BEAD023460CF8013B91
:4071C00013F0FF0F4FEA3323F8D15DF8044B704711F0010F06D011F8012B0CF8012B002A08BF704711F0020FBFD031F8022B12F0FF0F16BF2CF8022B8CF8002012F47F4F32
:40720000B3D1704711F8012B0CF8012B002AF9D1704700BF20F0030110F00300C0F1000051F8043B00F1040C4FEACC0C6FF000021CBF22FA0CF213434FF0010C4CEA0C2C7C
